:100000000C9462000C948A000C948A000C948A0070
:100010000C948A000C948A000C948A000C948A0038
:100020000C948A000C948A000C948A000C948A0028
:100030000C948A000C948A000C948A000C948A0018
:100040000C94A9050C948A000C9477050C94510526
:100050000C948A000C948A000C948A000C948A00F8
:100060000C948A000C948A000000000024002700F1
:100070002A0000000000250028002B0000000000DE
:1000800023002600290004040404040404040202DA
:100090000202020203030303030301020408102007
:1000A0004080010204081020010204081020000012
:1000B0000008000201000003040700000000000027
:1000C0000000F30511241FBECFEFD8E0DEBFCDBF87
:1000D00011E0A0E0B1E0EAE6F1E102C005900D9286
:1000E000AC37B107D9F722E0ACE7B1E001C01D920F
:1000F000A03CB207E1F710E0C2E6D0E004C02197CF
:10010000FE010E94AD08C136D107C9F70E94B706AB
:100110000C94B3080C94000096E0899FD001112440
:10012000AE5DBD4F90967C936E935F9791E09196F4
:100130009C939197E0918F02F091900290918E02A2
:10014000992339F0309751F0811108C080913E0217
:100150000994309719F05C968C91FACF0895CF925C
:10016000DF92EF92FF920F931F9396E0899FF00129
:100170001124EE5DFD4F11A2278D30A121303105F4
:1001800051F178F02230310509F451C023303105A6
:1001900009F452C01F910F91FF90EF90DF90CF9024
:1001A00008956623B9F361E070E00E948C002FB7D8
:1001B000F8948091810190918201A0918301B09186
:1001C00084012FBF80937A0290937B02A0937C02DC
:1001D000B0937D02DFCF9FB7F894C0908101D0909B
:1001E0008201E0908301F09084019FBF00917A0228
:1001F00010917B0220917C0230917D02C01AD10ABD
:10020000E20AF30A00918C0210918D0230E020E0A6
:100210000C151D052E053F0550F462E070E01F919E
:100220000F91FF90EF90DF90CF900C948C006111B4
:10023000B1CF63E070E0F3CF70E060E0F0CFAF9259
:10024000BF92CF92DF92EF92FF920F931F93CF93C3
:10025000DF936C017B018B01040F151FEB015E0125
:10026000AE18BF08C017D10759F06991D601ED91BA
:10027000FC910190F081E02DC6010995892B79F759
:10028000C501DF91CF911F910F91FF90EF90DF900B
:10029000CF90BF90AF900895FC01538D448D252FD2
:1002A00030E0842F90E0821B930B541710F0CF9610
:1002B000089501970895FC01918D828D981761F042
:1002C000A28DAE0FBF2FB11D5D968C91928D9F5F59
:1002D0009F73928F90E008958FEF9FEF0895FC0138
:1002E000918D828D981731F0828DE80FF11D858DEB
:1002F00090E008958FEF9FEF0895FC01918D228D7E
:10030000892F90E0805C9F4F821B91098F73992702
:10031000089585E891E00E947D0121E0892B09F490
:1003200020E0822F089580E090E0892B29F00E9440
:10033000890181110C9400000895FC01A48DA80F7F
:10034000B92FB11DA35ABF4F2C91848D90E0019617
:100350008F739927848FA689B7892C93A089B18937
:100360008C91837080648C93938D848D981306C0D8
:100370000288F389E02D80818F7D80830895EF923C
:10038000FF920F931F93CF93DF93EC0181E0888F4F
:100390009B8D8C8D98131AC0E889F989808185FF1F
:1003A00015C09FB7F894EE89FF896083E889F989C1
:1003B00080818370806480839FBF81E090E0DF91C3
:1003C000CF911F910F91FF90EF900895F62E0B8D16
:1003D00010E00F5F1F4F0F731127E02E8C8D8E11D1
:1003E0000CC00FB607FCFACFE889F989808185FF38
:1003F000F5CFCE010E949D01F1CFEB8DEC0FFD2FCB
:10040000F11DE35AFF4FF0829FB7F8940B8FEA89F2
:10041000FB8980818062CFCFCF93DF93EC01888D01
:100420008823B9F0AA89BB89E889F9898C9185FD6F
:1004300003C0808186FD0DC00FB607FCF7CF8C91FD
:1004400085FFF2CF808185FFEDCFCE010E949D0117
:10045000E9CFDF91CF910895833081F028F4813086
:1004600099F08230A9F008958730A9F08830C9F05A
:100470008430B1F4809180008F7D03C08091800032
:100480008F7780938000089584B58F7784BD089519
:1004900084B58F7DFBCF8091B0008F778093B000C3
:1004A00008958091B0008F7DF9CFCF93DF93282FEF
:1004B00030E0F901E255FF4F8491F901E656FF4F14
:1004C000D491F901EA57FF4FC491CC23A1F08111D7
:1004D0000E942C02EC2FF0E0EE0FFF1FE458FF4FBC
:1004E000A591B491EC91ED2381E090E009F480E0D6
:1004F000DF91CF91089580E090E0FACF862F0C94A1
:1005000055021F93CF93DF93282F30E0F901E25576
:10051000FF4F8491F901E656FF4FD491F901EA5754
:10052000FF4FC491CC23A9F0162F81110E942C02F9
:10053000EC2FF0E0EE0FFF1FEE58FF4FA591B491A6
:100540008FB7F894EC91111108C0D095DE23DC939D
:100550008FBFDF91CF911F910895DE2BF8CF862FAB
:10056000642F0C948102CF93DF9390E0FC01E65658
:10057000FF4F24918A579F4FFC0184918823C9F033
:1005800090E0880F991FFC01E859FF4FA591B491A5
:10059000FC01EE58FF4FC591D49161110DC09FB77A
:1005A000F8948C91209582238C938881282328832A
:1005B0009FBFDF91CF910895623051F49FB7F894B7
:1005C0003C91822F809583238C93E8812E2BEFCF53
:1005D0008FB7F894EC912E2B2C938FBFEACF862FF8
:1005E000642F0C94B3023FB7F89480917D019091F1
:1005F0007E01A0917F01B091800126B5A89B05C026
:100600002F3F19F00196A11DB11D3FBFBA2FA92F91
:10061000982F8827BC01CD01620F711D811D911D8E
:1006200042E0660F771F881F991F4A95D1F70895FA
:100630008F929F92AF92BF92CF92DF92EF92FF92F2
:100640004B015C010E94F3026B017C010E94F302EA
:100650006C197D098E099F09683E734081059105DB
:10066000A8F321E0821A9108A108B10888EEC80E0B
:1006700083E0D81EE11CF11C81149104A104B10493
:1006800029F7FF90EF90DF90CF90BF90AF909F90B1
:100690008F900895089590E080E00895FC01019006
:1006A0000020E9F73197AF01481B590BBC0188EADC
:1006B00092E00C941F01CF93DF93EC0160E08E81F8
:1006C0000E94810261E08E810E94810260E08E8141
:1006D0000E9481028BE891E00197F1F7DF91CF91C1
:1006E0000895CF92DF92EF92FF920F931F93CF93D3
:1006F000DF936C017C0187E0E80EF11CD0E0C0E0E4
:10070000062F10E0B8010C2E02C0759567950A946B
:10071000E2F76170F70181917F010E9481022196C9
:10072000C430D10579F7C601DF91CF911F910F91A8
:10073000FF90EF90DF90CF900C945B03CF92DF920D
:10074000EF92FF920F931F93CF93DF93EC01F62E5E
:10075000642F8C810E9481028D818F3F19F060E0AF
:100760000E9481020F2D10E08F8584FF25C06E014D
:1007700087E0C80ED11CF12CE12CB8010E2C02C070
:10078000759567950A94E2F76170F60181916F01A2
:100790000E948102FFEFEF1AFF0A88E0E816F104D9
:1007A00061F7CE01DF91CF911F910F91FF90EF90F4
:1007B000DF90CF900C945B03B80184E0759567954A
:1007C0008A95E1F7CE010E9471036F2DCE01DF9172
:1007D000CF911F910F91FF90EF90DF90CF900C94ED
:1007E000710340E0682F88EA92E00C949E0381E058
:1007F0000E94F1038BE39FE10197F1F70895CF93F6
:10080000DF93823029F49091B70298609093B702F9
:100810008093BB021092BC0280E48093BD0280E111
:100820008093BE0280E58093BF0261E08091AC02BC
:100830000E94B3028091AD028F3F19F061E00E94E7
:10084000B30261E08091AE020E94B302C8EAD2E036
:100850009E01285A32408091B70284FD0BC084E08B
:1008600090E021962817390744F461E08E810E94B8
:10087000B302EECF88E090E0F4CF8BE39DE00197E8
:10088000F1F760E08091AC020E94810260E080910B
:10089000AE020E9481028091AD028F3F19F060E0AC
:1008A0000E9481028091B70284FD34C063E088EA2F
:1008B00092E00E947103CBE4D6E4CE010197F1F7F8
:1008C00063E088EA92E00E9471032197F1F763E008
:1008D00088EA92E00E94710383E592E00197F1F7C4
:1008E00062E088EA92E00E9471038091B702806220
:1008F0000E94F10384E08093B8028CE00E94F1032F
:100900000E94F70382E08093B90286E0DF91CF91E5
:100910000C94F10380620E94F1038BE496E401974A
:10092000F1F78091B70280620E94F10383E592E0C3
:100930000197F1F78091B70280620E94F103D5CF51
:100940009091BB02891710F08FEF890FE82FF0E02C
:10095000E855FD4F848980680C94F103CF93209172
:100960004102309142022130310509F092C0C82F76
:10097000682F85E891E00E94BF0142E050E061E409
:1009800071E085E891E00E941F016AE070E080E07C
:1009900090E00E941803C33209F43EC0CA3209F045
:1009A00066C08091910290919202FC013191209158
:1009B0009302A4E9B2E04496311139C021113FC03D
:1009C00060E08BE00E94810261E08AE00E94810287
:1009D0000E94F70380E00E94A00484E491E00E945A
:1009E0004E0381E00E94A00483E591E00E944E0343
:1009F00068EB7BE080E090E00E94180361E08BE010
:100A00000E94810260E08AE00E9481020E94F70356
:100A100081E691E00E944E031092A7021092930289
:100A200061E070E080E090E0CF910C941803321305
:100A300006C031912D918E179F0709F0BDCF61E05F
:100A40008BE00E94810260E08AE00E9481020E94A5
:100A5000F70380E00E94A0048BE691E00E944E0321
:100A600068EB7BE080E090E00E941803CFCFE0913C
:100A7000A702E331A9F291E09E0F9093A702F0E064
:100A8000EF56FD4FC283E92FF0E0EF56FD4F128283
:100A9000C7CFCF91089541E00E949E0381E090E08E
:100AA00008951F920F920FB60F9211242F933F9328
:100AB0004F935F936F937F938F939F93AF93BF9366
:100AC000EF93FF9385E891E00E949D01FF91EF91E4
:100AD000BF91AF919F918F917F916F915F914F9156
:100AE0003F912F910F900FBE0F901F9018951F925E
:100AF0000F920FB60F9211242F938F939F93EF9322
:100B0000FF93E0919501F09196018081E0919B0126
:100B1000F0919C0182FD1BC0908180919E018F5FAE
:100B20008F7320919F01821741F0E0919E01F0E0C8
:100B3000EB57FE4F958F80939E01FF91EF919F9110
:100B40008F912F910F900FBE0F901F90189580815D
:100B5000F4CF1F920F920FB60F9211242F933F9351
:100B60008F939F93AF93BF93809181019091820166
:100B7000A0918301B091840130917C0123E0230F87
:100B80002D3758F50196A11DB11D20937C0180934E
:100B9000810190938201A0938301B093840180919D
:100BA0007D0190917E01A0917F01B091800101961D
:100BB000A11DB11D80937D0190937E01A0937F01C3
:100BC000B0938001BF91AF919F918F913F912F91F1
:100BD0000F900FBE0F901F90189526E8230F0296D6
:100BE000A11DB11DD2CF109288011092870188EE0D
:100BF00093E0A0E0B0E08093890190938A01A093F4
:100C00008B01B0938C018DE191E0909386018093EC
:100C1000850185EC90E0909392018093910184ECA2
:100C200090E0909394018093930180EC90E09093F6
:100C300096018093950181EC90E0909398018093C8
:100C4000970182EC90E090939A018093990186EC51
:100C500090E090939C0180939B0110929E011092D2
:100C60009F011092A0011092A1011092AB0210926C
:100C7000AA0289E391E09093A9028093A8028EE0F2
:100C80008093AC028FEF8093AD028FE08093AE0231
:100C900080E18093AF0281E18093B00282E1809392
:100CA000B10283E18093B2021092B3021092B402B7
:100CB0001092B5021092B6021092B70281E00E9423
:100CC000FF0383E191E0909392028093910210924E
:100CD000A7021092930210922402109228021092FE
:100CE0002702109229028FE291E0909323028093D1
:100CF0002202EEE3F2E0108214821382158236960D
:100D000082E0EA37F807B9F783E091E09093850233
:100D10008093840280E091E0909387028093860222
:100D200084E08093880283E08093890287E091E0E9
:100D300090938302809382028AE090E090938B02EA
:100D400080938A0284EF91E090938D0280938C02CD
:100D50001092900210928F0210927E0210927F02E7
:100D6000109280021092810210928E02089578945F
:100D700084B5826084BD84B5816084BD85B58260A0
:100D800085BD85B5816085BD80916E008160809351
:100D90006E001092810080918100826080938100BA
:100DA00080918100816080938100809180008160CA
:100DB000809380008091B10084608093B100809125
:100DC000B00081608093B00080917A00846080934D
:100DD0007A0080917A00826080937A0080917A0014
:100DE000816080937A0080917A00806880937A0095
:100DF0001092C100E0919501F091960182E080830C
:100E0000E0919101F09192011082E0919301F091B3
:100E100094018FEC808310929D01E0919901F091F3
:100E20009A0186E08083E0919701F091980180819A
:100E300080618083E0919701F091980180818860C2
:100E40008083E0919701F091980180818068808390
:100E5000E0919701F091980180818F7D808382E0FD
:100E60000E94FF0361E08AE00E94B30261E08BE030
:100E70000E94B30261E08BE00E9481028EEA94E05E
:100E80009093900280938F020E94F70380E00E946B
:100E9000A00481E691E00E944E03812C912C540124
:100EA000839422242A94322C50E0652E50E0752E33
:100EB00051E050938E028FB7F89440918101509188
:100EC000820160918301709184018FBF80917E02C5
:100ED00090917F02A0918002B0918102481B590B32
:100EE0006A0B7B0B80918A0290918B02B0E0A0E0AC
:100EF00084179507A607B70708F016C1C0E08091D0
:100F00008802C81760F4E0918402F0918502EC0F2A
:100F1000F11D62E080810E94B302CF5FF0CF512CBF
:100F200080918902581608F05FC0052D10E0E0910D
:100F30008602F0918702E00FF11F61E080810E943C
:100F4000B302E0918602F0918702E00FF11F60E0AA
:100F500080810E948102D501C401052C04C0880F44
:100F6000991FAA1FBB1F0A94D2F76C017C01E09461
:100F7000F094412C809188024816F8F4C42DD0E0FA
:100F8000E0918402F0918502EC0FFD1F80810E94A8
:100F900055022496CC0FDD1FCE5DDD4F892B41F429
:100FA000888199818C299D29998388834394E2CFF4
:100FB000888199818E219F21F7CFE0918602F0915F
:100FC0008702E00FF11F61E080810E948102809121
:100FD000860290918702080F191F60E0F801808156
:100FE0000E94B30253949CCF02E212E0F801878D75
:100FF00090A1892B21F4148E368E258E11A236965F
:1010000052E0EE35F50799F7F12C80918802F81639
:1010100008F050C0E12CCF2DD0E0CC0FDD1FC65D15
:10102000DD4F20918902E21608F042C06881798183
:101030000E2C02C0769567950A94E2F7F29E900115
:1010400011242E0D311DE2E2F2E080E0458D568D37
:101050002417350709F478C08F5F36968A30B1F7C8
:1010600060FF24C0E2E2F2E090E080E0448D4111B4
:1010700018C0E0918202F0918302E20FF31F4081D9
:1010800056E0589FF001599FF00D1124EE5DFD4F81
:10109000448F368F258F10A2178E61E00E94AF001B
:1010A00005C0019636968A30910501F7E394B9CFD1
:1010B000F394ABCF80E0F80191A19111892F0A5FE1
:1010C0001F4FF2E00E351F07B1F79FB7F89440911C
:1010D00081015091820160918301709184019FBFD1
:1010E00040937E0250937F0260938002709381024E
:1010F0008823D1F0809143028823B1F0809141028E
:1011000090914202019781F480913E0281110FC0BB
:101110006114710409F4CCCE0E948901882309F47A
:10112000C7CE0E940000C4CE10928E02F1CF8A3248
:1011300079F3833259F041E050E06AE771E088EAE0
:1011400092E00E941F01E4CF6170A8CF0E94F703D4
:1011500049E050E061E671E0F2CFEE0FFF1F05902D
:0A116000F491E02D0994F894FFCFFC
:10116A00050403090807063132333435363738396E
:10117A002A302331323334350000000000BF011F0A
:10118A00014C010C027D015B016F0100000000EFC0
:10119A0002AF027E02000000004B051F014B034A0A
:1011AA00030D0A0050617373776F72642062656E73
:1011BA0061720050696E74752074657262756B6134
:1011CA000050617373776F72643A0050617373777A
:0C11DA006F72642073616C6168002A0071
:00000001FF
